:100000000C94BE030C949B140C9405040C940504EE
:100010000C9405040C9405040C9405040C9405043C
:100020000C9405040C9405040C94712A0C94432B35
:100030000C9413230C9405040C9405040C940504EF
:100040000C9405040C9405040C9405040C9405040C
:100050000C9405040C947B230C9405040C94050467
:100060000C9405040C9405040C9405040C940504EC
:100070000C9405040C9405040C9405040C940504DC
:100080000C9405040C9405040C9405040C940504CC
:100090000C9405040C9405040C9405040C940504BC
:1000A0000C9405040C9405040C940504DA18DA1871
:1000B0000C190C1959197719CF1ACF1AB9194E1AE8
:1000C0005F1A5F1ABF1ACF1ACF1AC81A551B551BD1
:1000D000671B671B5E1B671B671B671B551B551B3D
:1000E000631B671B671B631BB02BD72BCF2CD72B36
:1000F000CF2C232C462CCF2C9D2CAC2C02E2600361
:10010000E20029001E001F002000210022002F0015
:100110002B0014001A000800150017002D00E00045
:1001200004001600070009000A003800E1001D0065
:100130001B000600190005004A00085DE300E2000C
:100140008700015128002C00890027002600250087
:100150002400230030003200130012000C001800AD
:100160001C002E00E40033000F000E000D000B00F9
:100170003400E500520037003600100011004D0039
:100180004F00510050000151115028002A00010079
:10019000000000000000000000000000010000005E
:1001A0000000F00000000000000001000000F2006C
:1001B0000000F30000000000010000000000F1005A
:1001C00000000000010039000100010000000100F2
:1001D00001000100460000000000000000000000D7
:1001E000FD000000000000000000FB00F900FE0020
:1001F000010000004F00520051005000FF000100BC
:10020000010000000000FC00FA00010001000100F4
:10021000010001001250F500F4000000005CC25C17
:10022000C35CC45CC55CC65C0000C75CC85CC95CE0
:10023000CA5CCB5CCC5C0000CD5CCE5CCF5CD05C9F
:10024000D15C00000000D25CD35CD45C00000000F4
:10025000000000000000000000000000000000009E
:10026000000000000000000000000000000000008E
:10027000000000000000000000000000000000007E
:10028000000000000000000000000000000000006E
:10029000000000000000000000000000000000005E
:1002A00001000000000000000000000000002A2BF8
:1002B0002800000000000000000000000000000016
:1002C0000029000000002C1E34202122243426277F
:1002D000252E362D3738271E1F20212223242526A0
:1002E0003333362E37381F0405060708090A0B0C6E
:1002F0000D0E0F101112131415161718191A1B1CB6
:100300001D2F3130232D350405060708090A0B0C73
:100310000D0E0F101112131415161718191A1B1C95
:100320001D2F3130354C000000000000000000009F
:1003300000000000000000000000000000000000BD
:1003400000000000000000000000000000000000AD
:10035000000000000000000000000000000000009D
:10036000000000000000000000000000000000008D
:10037000000000000000000000000000000000007D
:10038000000000000000000000000000000000006D
:10039000000000000000000000000000000000005D
:1003A000000000000000000000000000000000004D
:1003B000000000000000000000000000000000003D
:1003C0000000000000000001010101010100010125
:1003D000010100000000000000000000000000001B
:1003E00001000100010101010101010101010101FF
:1003F00001010101010101010101010101010101ED
:1004000001000000010100000000000000000000E9
:1004100000000000000000000000000000000000DC
:1004200000010101010000047F3F1F6432146432A7
:1004300014783C1E1E140A052223252628292A2C5E
:100440002D2F3032333536383A3B3D3E404243451E
:1004500047494A4C4E5051535557595A5C5E606259
:10046000646668696B6D6F71737577797B7D7F8169
:10047000838587898A8C8E90929496989A9C9E9F69
:10048000A1A3A5A7A8AAACAEAFB1B3B4B6B8B9BB87
:10049000BCBEBFC1C2C3C5C6C7C9CACBCCCDCED0F6
:1004A000D1D2D2D3D4D5D6D7D7D8D9D9DADADBDBE3
:1004B000DBDCDCDCDCDCDDDDDDDDDCDCDCDCDCDB7A
:1004C000DBDBDADAD9D9D8D7D7D6D5D4D3D2D2D1C3
:1004D000D0CECDCCCBCAC9C7C6C5C3C2C1BFBEBCB6
:1004E000BBB9B8B6B4B3B1AFAEACAAA8A7A5A3A127
:1004F0009F9E9C9A98969492908E8C8A89878583E9
:10050000817F7D7B79777573716F6D6B69686664C8
:1005100062605E5C5A5957555351504E4C4A494798
:10052000454342403E3D3B3A3836353332302F2D3D
:100530002C2A292826252322FFAA7F5540000101C5
:100540000101010101010102020202020202020292
:100550000303030303030303040404040404040562
:100560000505050506060606060707070707080826
:100570000808090909090A0A0A0B0B0B0C0C0C0DD7
:100580000D0D0E0E0E0F0F0F101011111112121370
:10059000131414151516161717181819191A1A1BEB
:1005A0001B1C1D1D1E1E1F2020212222232424254A
:1005B0002626272829292A2B2C2D2D2E2F30313283
:1005C00032333435363738393A3B3C3D3E3F404193
:1005D00042434445464748494A4C4D4E4F5051537B
:1005E00054555658595A5B5D5E5F61626465666832
:1005F000696B6C6D6F7072737577787A7B7D7E80B6
:1006000082838587888A8C8E8F91939596989A9C01
:100610009EA0A2A3A5A7A9ABADAFB1B3B5B7BABC15
:10062000BEC0C2C4C6C9CBCDCFD1D4D6D8DBDDDFE6
:10063000E2E4E7E9EBEEF0F3F5F8FAFDFF0403304E
:1006400000000012034500720067006F0044006163
:10065000007300680000000C034F006D006B006227
:1006600000640000000403090409023B00020100C9
:10067000A0FA090400000103010100092111010091
:10068000012240000705810308000A090401000156
:1006900003000000092111010001228500070582E5
:1006A0000320000A1201100100000008EDFE606046
:1006B00000010102030105010902A10185020901EE
:1006C000A1000509190129051500250195057501E8
:1006D00081029501750381010501093009311581F8
:1006E000257F95027508810609381581257F9501BA
:1006F00075088106050C0A38021581257F9501755C
:10070000088106C0C005010980A10185031A810086
:100710002A8300160100260300950175108100C090
:10072000050C0901A10185041A01002A9C02160189
:1007300000269C02950175108100C005010906A1E3
:1007400001050719E029E7150025019508750181C4
:10075000029501750881010507190029FF1500267A
:10076000FF00950675088100050819012905950502
:1007700075019102950175039101C00011241FBEFE
:10078000CFEFDAE0DEBFCDBF04B603FE27C0809115
:10079000AD029091AE02A091AF02B091B00287304D
:1007A000904BA740B04BD1F41092AD021092AE0224
:1007B0001092AF021092B00214BE84B7877F84BF3C
:1007C0000FB6F894A89580916000886180936000CE
:1007D000109260000FBEE0E0F8E3099511E0A0E0A0
:1007E000B1E0E4E4FBE502C005900D92AA36B10742
:1007F000D9F722E0AAE6B1E001C01D92AD3AB207F6
:10080000E1F70E9499270C94A02D0C9400000C9401
:10081000670A08959C01FB018281882349F02830F2
:100820003D4539F48CEF90E00E94BF0480E00895CC
:1008300081E0089581E008950C940A041F93CF93FA
:10084000DF9300D000D01F92CDB7DEB749835A8323
:100850006B832091B70189819A81211112C066238F
:1008600049F00E94A520182F682F89819A810E9443
:100870004E2003C00E947920182F69817A81812F30
:1008800004C00E94A52069817A810F900F900F907B
:100890000F900F90DF91CF911F910C94B607FC0140
:1008A000408151816281738184810C941E041F9365
:1008B000CF93DF9390E0FC01EA55FD4F1491FC01CA
:1008C000EA55FC4FD491FC01EA5DFC4FC491DD2355
:1008D00019F081EE0E940117CC2319F086EE0E94D8
:1008E0000117812F0E948718CC2319F086EE0E94F1
:1008F0001F18DD2331F081EEDF91CF911F910C9411
:100900001F18DF91CF911F9108950F931F93CF93DD
:10091000DF93EC01062FFE018491882359F19E019B
:100920002F5F3F4F813041F4E901F9011491812F8C
:100930000E940117812F0DC0823031F4E901F901C5
:1009400084910E9401170AC0833031F4E901F90152
:1009500084910E941F1802C00E9457042196802F84
:100960008823C9F2EFE9FFE03197F1F700C00000FA
:100970008150F6CFDF91CF911F910F91089560E0E4
:100980000C9485040E94D721811102C00E94772215
:100990000C9407040C94650A08950C94CC0481E02F
:1009A00008950C94CF04CF93C82F0E94CD048C2FB0
:1009B0000E94D104CF9108950E94431B0E94090414
:1009C0002FEF84E39CE0215080409040E1F700C08D
:1009D000000087E797E790930108809300080C9444
:1009E000A1230F931F93CF93DF938C010E944F0499
:1009F000EC01B8010E941C04882309F4ADC2B801BF
:100A0000CE010E94AA13882309F4A6C2CB3CFCE5C0
:100A1000DF0741F4F8018281882309F49DC20E9416
:100A2000420D9AC2CC3C8CE5D80708F0D0C1C33C3B
:100A30009CE5D90761F4F8018281882309F48CC20E
:100A40000E9426218272F1F00E94851185C2C43C69
:100A5000ECE5DE07D0F0F8018281C73CFCE5DF075A
:100A600009F490C108F09DC1C53CECE5DE0709F42E
:100A70008EC108F091C1882309F46EC20E9426211C
:100A8000827211F30E94781167C2C631FCE5DF075C
:100A900008F042C1C2308CE5D80708F419C1F8014A
:100AA0008281882309F41BC10E94D721811102C0D1
:100AB0000E9477220E94EA2190939F0280939E02D7
:100AC000C031FCE5DF0709F4C3C008F041C0C830FD
:100AD0009CE5D90709F49AC0F0F4C430FCE5DF07BF
:100AE00009F487C068F4C2309CE5D90709F477C0DF
:100AF000C330DC4509F0E3C080919E02826076C07D
:100B0000C630FCE5DF0709F46EC008F07BC08091B9
:100B10009E0288606BC0CC309CE5D90709F485C083
:100B200068F4CA30FCE5DF0709F474C008F079C046
:100B30000E94431B80919E02806858C0CE309CE585
:100B4000D90709F476C008F07FC080919E028BC05F
:100B5000CB3FFCE5DF0709F44FC018F5C3319CE536
:100B6000D90709F47DC078F4C131FCE5DF0709F449
:100B700073C0C231DC4509F0A2C00E94431B8091C2
:100B80009E028F7733C0C5319CE5D90709F472C046
:100B900008F486C0CA3FDC4509F091C080919F02ED
:100BA0003EC0CF3F8CE5D80709F45FC058F4CD3F75
:100BB000ECE5DE0709F444C008F43FC080919F02D1
:100BC00082602DC0C1308DE5D80709F475C008F4E6
:100BD0005DC0C230DD4509F072C080E06EC080911A
:100BE0009E02816003C080919E02806180939E027C
:100BF00066C080919E0211C080919F0282608093A6
:100C00009F025DC080919E028062F0CF80919E0223
:100C10008064ECCF80919E0288608460E7CF816021
:100C2000EECF80919E028E7FE1CF80919E028D7FDC
:100C3000DDCF80919E02877FD9CF80919F0218C01F
:100C400080919F028D7FDBCF80919E028F7ECECFE1
:100C500080919E028F7DCACF80919E028F7BC6CFEE
:100C600080919E02877F8B7FC1CF80919F028D7F75
:100C70008E7FC5CF80919E0282FB222720F991E0D2
:100C8000922790FB82F990FB83F9B0CF80919F026D
:100C9000982F909591708E7F892B90FB81F9AFCF23
:100CA0000E94431B80919E0287FB222720F991E03E
:100CB000922790FB87F99ACF81E00E947922809158
:100CC0009E0290919F020E94FB210E94431B44C1FF
:100CD000C1159CE5D90751F0C130DC4579F0C80158
:100CE000DF91CF911F910F910C941A04F80182812A
:100CF000882309F431C10E94DC042EC1F8018281ED
:100D0000882309F429C180913202982F909590FB95
:100D100080F98093320220C1C631FCE5DF0739F546
:100D20000E942621982FF801828120912101309183
:100D30002201882379F09A7A81E009F480E0809397
:100D40006A01911102C069E201C065E3C9010E9414
:100D5000B1220AC080916A01811102C069E201C01A
:100D600065E3C9010E94B3220E947421F5C0C23C10
:100D7000DC4509F0B4CFF80182818111EDC00E94F9
:100D8000B311EAC08111E8C00E94EA0EE5C08111EA
:100D9000E3C00E94CE0EE0C08111DEC00E94DB0ED7
:100DA000DBC0C93C9CE5D90729F48111D5C00E945C
:100DB000080FD2C0CA3CDC4528F48111CDC00E9486
:100DC000F90ECAC08111C8C00E94170FC5C0C33D2B
:100DD000FCE5DF0749F4F8018281882309F4BCC0EF
:100DE00088E10E948811B8C0C43D8CE5D80708F09E
:100DF00069C0F8018281CF3CFCE5DF0771F48823EC
:100E000009F4AAC00E943A0D863028F00E943A0DDB
:100E1000883008F437CE86E0E4CFC03D9CE5D907A2
:100E200000F5CD3CECE5DE0729F4882309F494C0F5
:100E300081E0D7CFCE3CDC4530F4882309F48CC068
:100E40000E94530D89C0882309F486C00E943A0D80
:100E5000823028F00E943A0D853008F413CE82E0EB
:100E6000C0CFC13D9CE5D90771F4882309F474C053
:100E70000E943A0D8F3028F00E943A0D843108F418
:100E800001CE8FE0AECFC23DDC4570F4882309F47B
:100E900063C00E943A0D893028F00E943A0D8E30CE
:100EA00008F4F0CD89E09DCF882309F455C00E9455
:100EB0003A0D853128F00E943A0D873108F4E2CDD1
:100EC00085E18FCFCD3DFCE5DF0749F4F801828154
:100ED000882309F441C082E00E9438283DC0CE3DFD
:100EE0008CE5D80738F5C53D9CE5D90731F4F80104
:100EF0008281882389F183E274CFC53DECE5DE076A
:100F000078F4F8018281882339F10E943A0D893101
:100F100028F00E943A0D823208F4B4CD89E161CF05
:100F2000CC3DDC4509F0DBCEF80182818823A1F0BD
:100F300080E0D2CFCE3D8CE5D80739F4F80182812C
:100F4000882351F00E94772207C0CE018A5F9C451A
:100F5000099708F4A4CDC3CE80E0DF91CF911F9113
:100F60000F91089580E090E00895089526E4829F0F
:100F7000C0011124FC0127E0729FE00DF11D112436
:100F8000E60FF11DEE0FFF1FEE5FFE4F859194916E
:100F90000895880F991FFC01EA5DFB4F859194919C
:100FA0000895CF93DF930E94B6070E948B09EC014E
:100FB0008115904508F041C0C11580E4D80708F0BC
:100FC00028C1C83ED10510F5C03ED10508F09FC12B
:100FD000C83AD10578F4C53AD10508F0A2C0C130AD
:100FE000D10509F494C108F445C1C430D10508F015
:100FF0008EC140C1CF3BD10508F49EC0C03CD10595
:1010000008F438C1CE01805C9109F5C0C11590E2A9
:10101000D90758F4C11521E0D20708F078C1C03FC4
:10102000D10508F427C1D06572C1C11580E3D80786
:1010300008F0E5C0CE019F70DEC0C11595E5D90767
:1010400008F043C0C11524E5D20708F0F9C0C11566
:1010500082E5D80708F5C11591E5D90708F0DCC08D
:10106000CE0174E0969587957A95E1F783709C2F71
:10107000937021E030E002C0220F331F9A95E2F70F
:101080003C68382BCF70C695C69580E2C89FE001BA
:101090001124C22BD32B3BC19E01237033278C2FED
:1010A00086958695C115D34508F0BBC0C1E0D0E058
:1010B00002C0CC0FDD1F2A95E2F720E2829FC0011B
:1010C0001124C82BD92BDC6822C1C11529E5D20710
:1010D000A0F4C11588E5D80708F0B7C0C11596E59A
:1010E000D90708F0C7C08C2F0E941F0A8F71C82F24
:1010F000D0E0DC2FCC27D0620AC1C1152AE5D20787
:1011000008F4A8C0CE0190568115904208F0B2C0F4
:101110008D2F8F710E941F0ADD27D0628F71D82B0F
:10112000F6C0C53AD10509F4A8C0C63AD10509F000
:10113000A7C0C2E8D0E4EBC0C83AD10509F4A3C007
:10114000C93AD10509F4A2C0CA3AD10509F4A1C02F
:10115000CB3AD10509F4A0C0CC3AD10509F49FC01F
:10116000CB3BD10509F49EC0CC3BD10509F49DC011
:10117000CD3AD10509F49CC0C03BD10509F49BC010
:10118000CE3AD10509F49AC0CF3AD10509F499C0F5
:10119000C13BD10509F498C0C23BD10509F497C001
:1011A000C33BD10509F496C0C43BD10509F495C0F1
:1011B000C53BD10509F494C0C63BD10509F493C0E1
:1011C000C73BD10509F492C0C83BD10509F491C0D1
:1011D000C93BD10509F490C0CD3BD10509F48FC0BE
:1011E000CE3BD10509F48EC0CA3BD10509F48DC0B0
:1011F000C0E0D4E48CC00E94C907EC0188C0CE01D5
:101200009927D3FF03C0EC01D86C81C0EC01D06CEE
:101210007EC0DF70D06A7BC0DC2FCC27C16FD06A64
:1012200076C0C1E0D0E002C0CC0FDD1F2A95E2F706
:1012300020E2829FC0011124C82BD92BDA6867C035
:10124000DC2FCC27C46FD06A62C0DC2FCC27C06FE4
:10125000D06A5DC08C2F8F700E941F0A94E0D695D3
:10126000C7959A95E1F7CF70D0E0DC2FCC27D069F5
:10127000C82B4DC0C0E0D0E04AC0C1E8D0E447C0B0
:10128000C3E8D0E444C0C2EED4E441C0C9EED4E423
:101290003EC0CAEED4E43BC0C5EBD4E438C0C6EBD4
:1012A000D4E435C0C3EBD4E432C0C4EBD4E42FC0E3
:1012B000C7EBD4E42CC0CCECD4E429C0CDECD4E40E
:1012C00026C0C3E8D5E423C0CAE8D5E420C0C2E9FB
:1012D000D5E41DC0C4E9D5E41AC0C1E2D6E417C004
:1012E000C3E2D6E414C0C4E2D6E411C0C5E2D6E439
:1012F0000EC0C6E2D6E40BC0C7E2D6E408C0CFE613
:10130000D4E405C0C0E7D4E402C0CAE2D6E4CE010A
:10131000DF91CF9108958238910569F1B0F481335E
:10132000910509F46DC048F48932910509F463C050
:101330008A32910509F469C008958533910509F44D
:1013400055C089339105B9F00895833E910569F13F
:1013500038F4803E9105B1F0823E910509F108957F
:10136000863E9105A9F1873E9105B9F1843E91052C
:1013700009F064C023C020919E0220FD4FC021FDD2
:101380004DC0089580919E0280FD44C080919F02CF
:1013900080FF44C080919E0284FD42C083EE4DC018
:1013A00080919E0282FF38C0F5CF80919E0282FD1F
:1013B00033C080919F0280FD31C0ECCF80919F02AD
:1013C00081FF32C080919E0284FD2AC087EE35C025
:1013D00080919E0283FF26C0F5CF80919E0283FDFF
:1013E00021C080919F0281FD1FC0ECCF80919E02A1
:1013F00085FD1CC01DC080919E0285FD19C016C0D0
:1014000080919E0286FD16C017C080919E0286FDC7
:1014100013C010C089E311C082EE0FC080EE0DC072
:1014200080E00BC086EE09C084EE07C089E205C0EB
:1014300085E303C08AE201C081E390E008959091C2
:101440009E0292FF0DC0282F2871283019F4877F43
:10145000846006C0282F2471243011F48B7F8860AB
:1014600093FF0DC0282F2871283119F4877E8461DD
:1014700006C0282F2471243111F48B7E88612091BD
:101480009F0220FF0DC0382F3871383019F4877F44
:10149000816006C0382F3171313011F48E7F886041
:1014A00021FF0DC0282F2871283119F4877E816112
:1014B00006C0282F2171213111F48E7E886194FDA0
:1014C000877E089508950C94620A0C94630A0C9424
:1014D000620AE82FF0E0EF58FE4F808108950895EA
:1014E000CF93DF930E94E80B80910001809100016F
:1014F000811102C095E001C090E090934A0285E01E
:10150000891B80934902ABE3B1E040E451E061E024
:1015100070E08D91E82FE295EF70F0E021A18F70DF
:10152000EB0102C0CC0FDD1F8A95E2F7CE019C2FA4
:101530009095922391A392A1892B82A34A175B07CE
:1015400041F7A4E3B1E04BE351E061E070E08D913D
:10155000E82FE295EF70F0E021A18F70EB0102C05F
:10156000CC0FDD1F8A95E2F7CE019C2F9095922338
:1015700091A392A1892B82A34A175B0741F7E1E768
:10158000F1E08BE791E011928E179F07E1F785E07C
:101590000E94920BDF91CF910C94C2046F927F92C4
:1015A0008F929F92AF92BF92CF92DF92EF92FF9273
:1015B0000F931F93CF93DF936BE371E0ACE6B1E041
:1015C00021E7A22E21E0B22E712C01E010E06D0186
:1015D0009C901C92EB018991BE01E82FE295EF707F
:1015E000F0E021A18F70A80102C0440F551F8A9519
:1015F000E2F7CA01242B21A322A1642E60942621A4
:1016000022A350EA5A95F1F794E3E92E91E0F92EDE
:1016100040E050E0E70189907E01282D22952F704F
:1016200030E0E90128A130E0D82DDF7002C0359507
:101630002795DA95E2F720FD07C09801042E01C036
:10164000220F0A94EAF702C020E030E03C91232BFD
:101650002C934F5F5F4F47305105E1F691A1D62D96
:10166000D923D1A392A1892B82A3119681E0F601FF
:101670009081991101C080E0782AAA16BB0609F072
:10168000A6CF60914A0270E06F587E4F272D45E04B
:101690008CE691E00E94930B872DDF91CF911F91F3
:1016A0000F91FF90EF90DF90CF90BF90AF909F9001
:1016B0008F907F906F900895CF930E94CE0AC82F8D
:1016C0000E94C90B882311F18091490290E08F5844
:1016D0009E4F0E94260C811114C080916B018F5F78
:1016E00080936B01863078F0E0914902F0E0EF588A
:1016F000FE4F80E090E01192019685309105D9F778
:1017000002C010926B010E94CA0409C080914A0273
:1017100090E08F589E4F0E94450C0E94620A8C2FC9
:10172000CF9108950895FF920F931F93CF93DF9366
:101730008C01F62ED72FC42F222349F081E080930D
:101740007D010E94452390937C0180937B018091D1
:101750007D018823C1F080917B0190917C010E94E2
:101760005123069780F0EF2DFD2FD8014C2F50E02C
:10177000CD01801B910B841795071CF48D918193EB
:10178000F7CF10927D01DF91CF911F910F91FF90C4
:10179000089580917E01811112C08091D8008061EE
:1017A0008093D8008AE18A95F1F700C08091D90032
:1017B00080FD02C082E001C081E080937E0181E073
:1017C00090917E01913009F080E008950C94C90B4E
:1017D0000E94E60B80930001809100016CE0882359
:1017E00011F080E001C08CE00E94E70C0E94C90B60
:1017F00081110C94FD0B0C94030C62E070E081E00D
:1018000091E00C94491462E070E081E091E00C9466
:1018100052140E94F310882361F086E891E00E9440
:10182000F91081E090E00E942B15892B11F40C94A3
:10183000F610089580918501883039F460E086E8DB
:1018400091E00E94D111109285010895CF93DF930A
:10185000D82FC92F0E94090C80E090E00E942B1520
:10186000892B79F4ED2FFC2F80E090E0DC01A0586B
:10187000BE4F2C912193019685309105B9F781E0F7
:1018800001C080E0DF91CF910895CF93DF93D82FEF
:10189000C92F0E941A0CED2FFC2F80E090E02191BF
:1018A000DC01A058BE4F2C93019685309105B9F705
:1018B000DF91CF910895EF92FF920F931F93CF93F3
:1018C000DF93F62E472FE82FF0E0711106C0E35C9E
:1018D000FA4F6491762F862F72C0272F30E0E35C99
:1018E000FA4FE4910E2F10E056E0659FC0011124DD
:1018F000CFEFD0E0BE010E94112D5BEA5603C0017C
:10190000579F900D11248F0D911D8F0D911D982FB4
:10191000990F890F7E01E21AF30AE09ED001E19E41
:10192000B00DF09EB00D1124489FA0011124452F49
:1019300055277E01E41AF50AE09EA001E19E500DB4
:10194000F09E500D11247E01E81AF108E29EC001BC
:10195000E39E900DF29E900D1124892F9927C81BAC
:10196000D90BC09FC001C19F900DD09F900D112435
:101970006230710591F048F461157105E1F0613054
:101980007105A9F48B2F752F19C06430710561F0B2
:1019900038F06630710579F00AC0892F7B2F0EC0B0
:1019A0008E2F7B2FE52F0AC08E2F792F02C0852F17
:1019B0007E2FEB2F03C08B2F7E2FE92F6E2FDF9111
:1019C000CF911F910F91FF90EF900895089580930C
:1019D0009501609315010895CF93DF93762FE90168
:1019E000682F842F0E945B0C798368838A83DF9140
:1019F000CF91089580914B02282F269530E0211534
:101A0000310519F48170826005C02532310524F05A
:101A10008170886480934B02089588E090E00C9474
:101A2000602DCF92DF92EF92FF926B017C010E94BA
:101A3000FA0CB701A60188E090E0FF90EF90DF90EC
:101A4000CF900C947E2DEBE4F2E083E08083118252
:101A50008FEF828383831482ADE9B1E012968C917B
:101A60001297836012968C93608171818281938139
:101A70000C94110D80914B0280FF02C08695089551
:101A800080E0089580914F02833018F48F5F809337
:101A90004F0260914B0270914C0280914D029091E7
:101AA0004E020C94110D80914F02882319F0815041
:101AB00080934F0260914B0270914C0280914D02D5
:101AC00090914E020C94110D6091150170E080917F
:101AD0004B0280FF0AC08091950123E0829FC001E4
:101AE0001124805B9D4F0C9433138091940190914D
:101AF0001401891780F7E82FF0E09F01220F331FB0
:101B0000E20FF31FE05BFD4F1182108212828F5FA4
:101B1000F0CF90914B0290FF16C0909194012091CC
:101B20001401921770F4E92FF0E0DF01AA0FBB1F38
:101B3000EA0FFB1FE05BFD4F8183608342839F5F61
:101B4000F0CF0C94640D0895CF93DF9300D01F92D3
:101B5000CDB7DEB790914B0290FF0AC09E012F5F78
:101B60003F4F0E94EC0C4B8169818A810E94890D54
:101B70000F900F900F90DF91CF910895CF93DF9347
:101B8000EC01EC81F0E0E85CFB4F4491EBE4F2E027
:101B9000628181810E94A40D8C818F5F8C83DF9193
:101BA000CF910895CF93DF93EC01EBE4F2E0438112
:101BB00062818C810E94A40D8C818F5F8C83DF9168
:101BC000CF9108950F931F93CF93DF9300D01F926F
:101BD000CDB7DEB78C0180918E0181110AC09E01C4
:101BE0002F5F3F4F4FEF6FEF0E94EC0C8A81809385
:101BF0008E01F8018481813051F028F0823061F447
:101C000040918E010AC080918E0140E007C0609132
:101C10008E0140E080E003C040E080E060E00E9490
:101C2000890DF801848190E0019663E070E00E94E4
:101C3000252D84830F900F900F90DF91CF911F91EE
:101C40000F910895AF92BF92CF92DF92EF92FF92E1
:101C50000F931F93CF93DF9300D01F92CDB7DEB7C2
:101C6000182FF62E042FE22E90914B0290FF7EC08B
:101C7000E92FE695AE2FB0E0AB5BBE4F8C91809321
:101C80009D019E7F923061F49E012F5F3F4F812F17
:101C90000E94EC0C4B8169818A810E94890D43C0AE
:101CA000823019F400914E023EC0863019F4109132
:101CB0004C0239C08930D9F38931A9F5E9518E2F09
:101CC0008170D82EE695F0E0E85CFA4FA590B490CC
:101CD000C12CBB2460911301C61618F52C2D30E0E1
:101CE000A29EC001A39E900DB29E900D112470E0A3
:101CF0000E94112D812FD11002C0860F01C0861BBA
:101D000090919401290F311DA901440F551F240FF3
:101D1000351F205B3D4F402F6F2D0E94EC0CC3946C
:101D2000D9CF0E94640D80914C02181308C0809195
:101D30004D02F81204C080914E02081729F08091DC
:101D40009F01826080939F0110934C02F0924D029C
:101D500000934E02EE2051F060914B0270914C02C4
:101D600080914D0290914E020E94110D0F900F90A4
:101D70000F90DF91CF911F910F91FF90EF90DF9027
:101D8000CF90BF90AF900895EBE4F2E09181282FBF
:101D90004381628188E0890F0C94220E81E00C94CB
:101DA000C40EEBE4F2E09181282F4381628188EF39
:101DB000890F0C94220E81E00C94D10EEBE4F2E03A
:101DC000628121E1620F08F46FEF282F4381818146
:101DD0000C94220E81E00C94DE0EEBE4F2E06281C2
:101DE00021E1621B08F460E0282F438181810C947B
:101DF000220E81E00C94ED0EEBE4F2E0438121E150
:101E0000420F08F44FEF282F628181810C94220E3B
:101E100081E00C94FC0EEBE4F2E0438121E1421BF3
:101E200008F440E0282F628181810C94220E81E029
:101E30000C940B0F20E00C94220EFF920F931F9333
:101E4000CF93DF93EC01F12C0FEF10E060911301C1
:101E5000F616F0F4809194012F2D30E0280F311DFB
:101E6000C901880F991F280F391F205B3D4F70E073
:101E7000C8010E94252D962F8C8140914E026091C1
:101E80004D02F99E800D11240E94EC0CF394DECFDC
:101E90000E94640D9A818C8190FF02C08F5F01C007
:101EA00081508C83DF91CF911F910F91FF90089506
:101EB0008F929F92AF92BF92CF92DF92EF92FF925A
:101EC0000F931F93CF93DF93EC018A8180FF03C0B0
:101ED000BB24BA9402C0BB24B3948C8181110DC081
:101EE00081E0B81206C08091130181508093900167
:101EF00002C01092900181E08C83A12C48E1942EC5
:101F000080911301A81608F044C080919401CA2C56
:101F1000D12C8601080F111DC801880F991F080FC9
:101F2000191F005B1D4FF80111821082128234E0EC
:101F3000E32EF12C812C80919001880D89312CF0B9
:101F4000692D0E94032D892F05C087FF03C0909142
:101F50001301890F082E000C990BC816D90691F4AD
:101F600080914E028E9DA0018F9D500D112455959C
:101F7000479555954795980160914D0280914C0287
:101F80000E94EC0C8B0CF1E0EF1AF108A1F6A3947F
:101F9000B7CF0E94640D8091900191E0B9120EC0FC
:101FA000811107C0809113018150809390011C82A0
:101FB0000FC0815080939001BC820AC090E00196CE
:101FC0006091130170E00E94252D809390018C8315
:101FD000DF91CF911F910F91FF90EF90DF90CF9005
:101FE000BF90AF909F908F9008951F93CF93DF93F2
:101FF000EC018C81811109C081E08C8310928F01EA
:1020000092E090931201809311018091940190913C
:102010001401891770F4E82FF0E09F01220F331F9D
:10202000E20FF31FE05BFD4F1182108212828F5F7F
:10203000F0CF10E0609113011617C0F5E12FF0E02A
:1020400070E0CF010E94252D20919401820F2091F4
:102050008F01022E000C330B90E0E217F307CCF057
:1020600020911201022E000C330B2E173F078CF02B
:102070009C01220F331F820F931F9C01205B3D4F59
:1020800040914E0260914D0280914C020E94EC0CF6
:102090000BC0FC01EE0FFF1F8E0F9F1FFC01E05BCA
:1020A000FD4F1182108212821F5FC4CF0E94640D07
:1020B0008091110120918F01280F20938F01909121
:1020C0001201980F9093120119165CF4022E000C65
:1020D000330B4091130150E041505109241735074B
:1020E00034F0819580931101813009F41C82DF91D5
:1020F000CF911F9108950F931F93CF93DF938C017E
:10210000FC01848195810196817099279583848350
:10211000C0E0D5E580911301C81700F580919401C6
:102120002C2F30E0280F311DC901880F991F280F6F
:10213000391F205B3D4F4C2F4695F80184819581D6
:10214000840F911D817040914E0260914D028D9FD0
:10215000802D11240E94EC0CCF5FDCCFDF91CF915A
:102160001F910F910C94640D0F931F93CF93DF93E6
:10217000EC0100E010E080911301282F30E00217FD
:10218000130724F5909194019801290F311DA9019D
:10219000440F551F240F351F205B3D4F869590E05F
:1021A0004C81081719071CF4442331F002C0411177
:1021B00003C040914E0201C040E060914D02809109
:1021C0004C020E94EC0C0F5F1F4FD5CF0E94640D94
:1021D0008C8190E00196817099278C83DF91CF915B
:1021E0001F910F91089580919F01089510929F0172
:1021F000089525E0EBE4F2E0DC0101900D922A95D0
:10220000E1F720919D0130919E0140919F01FC01D9
:10221000258336834783089560914B02669570E06D
:102220004BE050E086E191E00E944B2D892B19F4A0
:1022300081E080939E010E944523909397018093B3
:10224000960180919F01846080939F010895EDE93C
:10225000F1E01182828184608283089590914B0223
:1022600090FF3AC09170811102C0926006C0853221
:1022700010F0986402C0880F982B90934B028091C5
:102280009F01816080939F01662351F060914B0212
:1022900070914C0280914D0290914E020E94110D5E
:1022A00060914B02669570E04BE050E086E191E072
:1022B0000E944B2D892B19F00E94271102C00E9409
:1022C0000C1181E08093990140914E0260914D0282
:1022D00080914C020C941A0F0895682F90914B0234
:1022E000969581E0890F853208F081E00C942E11DB
:1022F00081E00C946D11682F90914B0296958FEFB1
:10230000890F09F484E20C942E1181E00C947B1166
:1023100061E00C942E11EBE4F2E080818160808317
:1023200086950C94881160E00C942E11EBE4F2E099
:1023300080818E7F808360817181828193810E9400
:10234000110D0E942711EDE9F1E082818160828305
:102350002FEF80E792E0215080409040E1F700C0ED
:1023600000000C94640D80914B0280FD0C9496113A
:102370000C948B11EBE4F2E080818E7F80830E94CD
:102380002711EDE9F1E08281816082832FEF80E700
:1023900092E0215080409040E1F700C000000C9492
:1023A000640D1F93CF93DF93EC01162F8F8180FF75
:1023B0000FC0888180FF0AC080914B0281608093AA
:1023C0004B02888186950E942E1102C00E94BA118C
:1023D0008F8181FF06C0212F4B816A8189810E94F4
:1023E000220E8F8182FF08C08E81882319F00E94FF
:1023F0000C1102C00E9427118F8183FF03C081E06E
:1024000080939901DF91CF911F91089580919C0154
:10241000811133C00E94D721811104C00E9477220C
:102420000E94230D0E940D0D60934B0270934C028D
:1024300080934D0290934E0280919F018360809320
:102440009F016E7F61F40E94230D0E940D0D609329
:102450004B0270934C0280934D0290934E020E9467
:10246000FA0C0E94271180914B0280FF03C08695D1
:102470000E94931181E080939C010895EF92FF9256
:102480000F931F93CF93DF9380919E01882309F4CC
:10249000B1C080919D01E0914B02E695E81BE0936D
:1024A0009801823049F4F0E0EC5CFB4FE491CE2FD0
:1024B000D0E00EEB1DE049C0863049F4F0E0EF5C5F
:1024C000FB4FE491CE2FD0E002ED1DE03EC08930FD
:1024D00051F4E695F0E0E25DFB4FE491CE2FD0E0C1
:1024E0000DE11FE032C08F3051F4E695F0E0E55D7C
:1024F000FB4FE491CE2FD0E008E51FE026C08531E8
:1025000049F4F0E0E85DFB4FE491CE2FD0E005EF19
:102510001FE01BC0883181F0833239F4E6E2F4E039
:10252000C591D49102EE1DE010C0843251F4C4EF85
:10253000D1E004EB10E109C0C8EED3E00BE710E1F5
:1025400004C0C0EDD7E006EE1CE08091990188231D
:1025500089F0109299010E9445239E0120953095A3
:10256000820F931F909397018093960110929B0185
:1025700010929A0180919601909197010E945123A7
:102580008C179D07B8F1809193018823B1F01092C8
:10259000930180919101909192010E945123803387
:1025A000954758F00E9445239093920180939101A2
:1025B00080919F01886080939F01E0909A01F09044
:1025C0009B01E0919601F0919701CE0FDF1FD09310
:1025D0009701C093960186E991E0F80109958091F1
:1025E0009A0190919B01892B29F4EF2819F081E041
:1025F00080939301DF91CF911F910F91FF90EF9006
:1026000008952BB1342F309523233BB1432B3FB793
:10261000F894FC01680F791FE617F70789F081919C
:1026200098E04BB9000000C087FF2BB9880F00006D
:1026300000C000C000C02BB900C09A9591F7ECCF44
:102640003FBF08952AB1242B2AB99B01220F331FC3
:10265000620F731F0E94011387EC90E00197F1F75E
:1026600000C00000089548E00C9422130F931F93BC
:10267000CF93DF93C62FD42F122FFC0182818823A2
:10268000C9F06093A2010E9445239093A101809319
:10269000A00180E28C0F883008F057C0C77081E03D
:1026A00001C0880FCA95EAF7DF91CF911F910F9172
:1026B0000C949A188091A201681330C08091A001F7
:1026C0009091A1010E9451238837910538F500E2CD
:1026D0000D0FCD17B9F080E28C0F883040F4C77031
:1026E00081E001C0880FCA95EAF70E94A11808305E
:1026F00028F581E09D2F977001C0880F9A95EAF721
:102700000E949A18812F0E9487180830F0F4D77021
:1027100081E001C0880FDA95EAF70AC080E28C0FE9
:10272000883098F4C77081E001C0880FCA95EAF735
:10273000DF91CF911F910F910C94A118812FDF9100
:10274000CF911F910F910C948718DF91CF911F911A
:102750000F9108959C01CB01233F4CE53407F9F01C
:1027600078F4283DFCE53F07B9F0293D4CE53407F6
:1027700011F1273D3C4531F526E241EE61EE1EC0E8
:10278000253FFCE53F0799F070F0263F3C45D1F42A
:1027900027E245EE66EE12C027E245EE0EC026E2C5
:1027A00041EE60EE0BC027E245EE64EE07C026E284
:1027B00041EE62EE03C028E241E065EE0E9436136E
:1027C00080E00895FC018281882319F01092A20113
:1027D000089581E008958EE1489B02C08150E1F7A1
:1027E000489BFECF0895589880E28A95F1F7589A51
:1027F0000895FC012AE02A95F1F790E020E080E0BE
:1028000031E0261779F040E14A95F1F7880F489BAF
:1028100002C08160932700C0000040E14A95F1F7B3
:102820002F5FEFCF20E12A95F1F729B100C000001A
:1028300030E13A95F1F7217092272081920F908331
:102840000895EF92FF920F931F93CF93DF931F9200
:10285000CDB7DEB719828C017C01E60EF11C0E1596
:102860001F0559F00E94EB1368E0CE0101960E940B
:10287000F913F80181938F01F2CF81E099819111D1
:1028800080E00F90DF91CF911F910F91FF90EF901B
:1028900008959093A5018093A4016093A301509A99
:1028A000589A08959093A5018093A4016093A30181
:1028B0005098589AE89AE9E6F0E080818C7F80830E
:1028C0000895615091E001C0990F6A95EAF720E000
:1028D00031E0992361F0492F482319F0589A2327B2
:1028E00001C0589840E24A95F1F79695F2CF22231D
:1028F00011F0589A01C0589880E28A95F1F75898DB
:102900000895FF920F931F93CF93DF93EC018C01F7
:10291000060F111DC017D10741F0F9900E94F31363
:1029200068E08F2D0E946114F5CFDF91CF911F9148
:102930000F91FF9008951F920F920FB60F921124DE
:102940000F931F932F933F934F935F936F937F93B7
:102950008F939F93AF93BF93EF93FF93CF93DF93A7
:102960001F92CDB7DEB719820E94EB1367E0CE014C
:1029700001960E94F913382F369536953695932F88
:1029800096959570232F2570920F292F2370969579
:1029900096958770920F891348C08981811145C02F
:1029A0008091A301831708F440C080E18A95F1F774
:1029B000589A509AA2E0AA95F1F700C00091A4019C
:1029C0001091A501B8E03B9F000D111D11245898EE
:1029D000F8016581662321F0868197810E94811428
:1029E0000E94F313F0E1FA95F1F758985098589A2D
:1029F00080E18A95F1F7D80112966C9112976623BF
:102A000069F013968D919C9114970E942114D8011E
:102A1000ED91FC91811105C082E004C0D801ED91D7
:102A2000FC9188E080830E94EB130F90DF91CF919F
:102A3000FF91EF91BF91AF919F918F917F916F9196
:102A40005F914F913F912F911F910F910F900FBE6A
:102A50000F901F9018950F931F93CF93DF932091A2
:102A6000A30130E0281739070CF471C09C0193E0F2
:102A7000220F331F9A95E1F7C091A401D091A501CF
:102A8000C20FD31FF894509A589845E04A95F1F731
:102A90000000982F969595708570890F982F9370E8
:102AA00086958695890F8901082B0E94F31384E08F
:102AB0008A95F1F700C067E0802F0E94611440E121
:102AC0004A95F1F75098589A489902C000C0FCCF37
:102AD00087E090E0489B0EC0019751F4509A589AB5
:102AE000E881F98181E08083789481E090E031C0D1
:102AF00000C0F0CF6D81662381F08E819F810E949E
:102B0000211481110AC0509A589AE881F98182E013
:102B10008083789482E090E01CC00E94EB1380E2F6
:102B20008A95F1F75898509A40E14A95F1F76A81F1
:102B3000662321F08B819C810E9481140E94F313F3
:102B4000E881F9811082789480E090E002C084E00E
:102B500090E0DF91CF911F910F9108959093AB0179
:102B60008093AA010895E091AA01F091AB013097FA
:102B700021F00190F081E02D099480E00895E0912A
:102B8000AA01F091AB01309721F00280F381E02D92
:102B900009940895E091AA01F091AB01309739F0C2
:102BA00022E0DC012C930480F581E02D0994089546
:102BB0002091A8013091A9012817390771F090934D
:102BC000A9018093A801E091AA01F091AB0130978F
:102BD00021F00680F781E02D099408952091A60147
:102BE0003091A7012817390771F09093A7018093BE
:102BF000A601E091AA01F091AB01309721F0008489
:102C0000F185E02D0994089585B7806885BF85B763
:102C1000806885BF089508950C940B160C940C16CB
:102C20000C940B160C940B160E9404160E9410169E
:102C30000C940E160E943C230E94700A0E94B2233C
:102C40000E9406120C941216BF92CF92DF92EF925E
:102C5000FF920F931F93CF93DF93CDB7DEB72A97E1
:102C60000FB6F894DEBF0FBECDBF0E945C0B0E9472
:102C7000C90B811111C08FEF89838A831B820E9447
:102C800045238160782F9D838C8349815A816B8194
:102C90008D810E94CD1654C08DEAC82E81E0D82EB9
:102CA00000E010E0B02E802F0E94690AE82EF601A5
:102CB00021916F01F82EF22631F40F5F1F4F0A3079
:102CC000110581F7D8CF8091320281FD0E946F0AF1
:102CD00080E090E02F2D30E0482FB901082E02C08F
:102CE000759567950A94E2F760FF25C08E83BF82D1
:102CF00081E090E06C0102C0CC0CDD1C4A95E2F74B
:102D00002E2D30E02C213D21232B09F480E08887F3
:102D10000E9445238160782F9A8789874E815F8141
:102D200068858A850E94CD16F801E355FE4F8081A3
:102D30008C25808305C001968730910569F6BDCF4B
:102D40000E9444250E94B3159091AC018917A9F007
:102D50000E94B3158093AC012A960FB6F894DEBF9B
:102D60000FBECDBFDF91CF911F910F91FF90EF90DC
:102D7000DF90CF90BF900C94D3042A960FB6F894AE
:102D8000DEBF0FBECDBFDF91CF911F910F91FF909E
:102D9000EF90DF90CF90BF900895CF93DF93CDB7A2
:102DA000DEB72B970FB6F894DEBF0FBECDBF4F83B3
:102DB000588769877A878B87DE01119686E0FD0147
:102DC00011928A95E9F785E0FE01379601900D9200
:102DD0008A95E1F749815A816B817C818D819E8141
:102DE0000E94131E2B960FB6F894DEBF0FBECDBF08
:102DF000DF91CF910895FC01808191810E94E720AD
:102E00000895882309F41AC18238C1F40E94B315C9
:102E100081FD14C169E380912101909122010E94FA
:102E2000B1220E9474212FEF81EE94E02150804066
:102E30009040E1F700C0000069E319C08338F9F45D
:102E40000E94B31580FDFAC063E580912101909145
:102E500022010E94B1220E9474212FEF81EE94E0A2
:102E6000215080409040E1F700C0000063E5809170
:102E70002101909122010E94B3220C947421843884
:102E8000C1F40E94B31582FDD9C067E4809121018D
:102E9000909122010E94B1220E9474212FEF81EEB5
:102EA00094E0215080409040E1F700C0000067E4CA
:102EB000DECF9CEF980F913A40F4682F809121016A
:102EC000909122010E94B122D8CF90E2980F9830C1
:102ED00050F4877091E001C0990F8A95EAF7892F25
:102EE0000E942921CACF9BE5980F933070F4853A50
:102EF00029F0863A31F083E890E005C081E890E05F
:102F000002C082E890E00C94D81598E5980F9731AC
:102F100008F08EC0883A09F445C0893A09F445C0E2
:102F20008A3A09F445C08B3A09F445C08C3A09F451
:102F300045C08B3B09F445C08C3B09F445C08D3A34
:102F400009F445C0803B09F445C08E3A09F445C0F8
:102F50008F3A09F445C0813B09F445C0823B09F42E
:102F600045C0833B09F445C0843B09F445C0853B1B
:102F700009F445C0863B09F445C0873B09F445C0C8
:102F8000883B09F445C0893B09F445C08D3B09F4F1
:102F900045C08E3B09F445C08A3B09F445C080E03A
:102FA00090E044C082EE90E041C089EE90E03EC0E7
:102FB0008AEE90E03BC085EB90E038C086EB90E075
:102FC00035C083EB90E032C084EB90E02FC087EBFC
:102FD00090E02CC08CEC90E029C08DEC90E026C0F5
:102FE00083E891E023C08AE891E020C082E991E083
:102FF0001DC084E991E01AC081E292E017C083E22B
:1030000092E014C084E292E011C085E292E00EC02A
:1030100086E292E00BC087E292E008C08FE690E083
:1030200005C080E790E002C08AE292E00C94EE15C1
:10303000803F20F00E944C240C9439250895882369
:1030400009F464C0823879F40E94B31581FF5EC030
:1030500069E380912101909122010E94B1220E9496
:10306000742169E310C08338B1F40E94B31580FF66
:103070004DC063E580912101909122010E94B1220F
:103080000E94742163E580912101909122010E94A8
:10309000B3220C947421843879F40E94B31582FF12
:1030A00035C067E480912101909122010E94B122F4
:1030B0000E94742167E4E7CF9CEF980F913A10F4D7
:1030C000682FE1CF90E2980F983050F4877091E02C
:1030D00001C0990F8A95EAF7892F0E942F21D9CF35
:1030E0009BE5980F933020F480E090E00C94D81585
:1030F00098E5980F973120F480E090E00C94EE155D
:10310000803F20F00E94B4240C9439250895CF9379
:10311000C82F0E940117C93349F42FEF87EE93E0BF
:10312000215080409040E1F700C000008C2FCF91EB
:103130000C941F18882321F00E9429210C947421DB
:103140000895882321F00E942F210C947421089562
:10315000CF92DF92EF92FF920F931F93CF93DF9363
:103160007C01062FC72FFC01158112951F70D2819B
:10317000D1110E9446210E941F21882379F0DD236E
:1031800069F080E2800F883048F082E00E94BE2122
:103190000E941F2191E0D82ED92601C0D12CCC2E1F
:1031A000C2948FE0C8228C2D90E0FC01EA5AFF4FB8
:1031B0000C94392D8C2F807FCF70882311F0C2950D
:1031C000C07FDD2399F0CC2309F4C4C180E2800FD5
:1031D000883010F0011104C08C2F0E94292103C0F7
:1031E0008C2F0E9439210E947421B4C1802F0E942B
:1031F0001F18CC2309F4D3C180E2800F883010F06F
:10320000011104C08C2F0E942F2103C08C2F0E941B
:103210003F210E947421C3C18C2F807FCF708032E8
:1032200011F0C295C07F002319F00130C9F022C00F
:10323000DD2371F0112341F0113031F40E94592146
:103240008C2B0E946121ABC10E9459218C2B1DC087
:10325000112319F0113009F4A2C10E946A2125C07E
:10326000DD2321F0163008F09AC10EC0153008F0A9
:1032700096C11BC0DD2361F0112331F0F701858178
:1032800080FF68C18F7085838C2F0E949A1887C138
:10329000112359F0093309F06EC1FFEF27EE83E0E7
:1032A000F15020408040E1F764C18C2F0E94A118AA
:1032B00076C18C2F86958695837019F0813061F0E8
:1032C0006EC1DD2321F0802F9C2F937002C080E01F
:1032D00090E00E94D8156BC1DD2321F0802F9C2F38
:1032E000937002C080E090E00E94EE1560C1DD2383
:1032F000F9F0053F51F0063F71F0043FA9F48091C9
:1033000098029091990281600BC0809198029091EF
:103310009902826005C08091980290919902846020
:103320009093990280939802802F0E944C241EC093
:10333000053F51F0063F71F0043FA9F480919802D7
:10334000909199028E7F0BC0809198029091990282
:103350008D7F05C080919802909199028B7F909308
:10336000990280939802802F0E94B4240E943925EC
:103370001EC18C2F837009F045C0D11114C1402F9C
:10338000429546954770440F440F602F6F70862F0B
:1033900090E0A0E0B0E0042E04C0880F991FAA1F9F
:1033A000BB1F0A94D2F704FF10C00FE010E020E02A
:1033B00030E004C0000F111F221F331F4A95D2F7BF
:1033C000009510952095309503C000E010E098011D
:1033D000C695C695C370BC01CD01602B712B822BA5
:1033E000932BC23049F058F4C13019F00E94641F89
:1033F000DAC00E94521FD7C00E94761FD4C00E941C
:10340000501FD1C0DD2319F08C2F817001C086952B
:10341000882309F4C8C0402F429546954770440F51
:10342000440F602F6F70862F90E0A0E0B0E0042E74
:1034300004C0880F991FAA1FBB1F0A94D2F704FF6C
:1034400010C00FE010E020E030E004C0000F111FBA
:10345000221F331F4A95D2F700951095209530957D
:1034600003C000E010E09801C695C695C370BC018A
:10347000CD01602B712B822B932BC23049F058F475
:10348000C13019F00E9429208EC00E9417208BC0E5
:103490000E943B2088C00E948A1F85C0CF70DD2318
:1034A00039F08C2F0E94B01F802F0E949A187BC089
:1034B000802F0E94A1188C2F0E94D11F74C0023F40
:1034C00001F128F4003F41F0013FA1F03FC0033F6C
:1034D000F9F0043F39F13AC0DD2341F0153008F02E
:1034E0005EC08C2F8F710E94F61F59C0163008F0F5
:1034F00056C0F7CFDD2339F08C2F8F710E94B01F9B
:103500004EC0DD23C9F38C2F8F710E94D11F47C09D
:10351000DD2329F08C2F8F710E949B1F40C00E94D9
:10352000961F3DC0DD2349F0CF718C2F0E94B01F44
:1035300063E08C2F0E94A92132C081E00E94BE214D
:10354000123068F182E00E94BE2129C0DD2331F0F3
:10355000112391F2802F0E94011721C0112399F2AB
:10356000093349F49FEFE7EEF3E09150E040F0407B
:10357000E1F700C00000802F0E941F1810C04C2FE0
:103580004F70602FC7010E94B2070E94C11E0FC07A
:103590004C2F4F70602FC7010E94B50708C088EFFD
:1035A0008C0D843020F40E94B3150E94D304DD20DA
:1035B000C9F00E941B2180FD15C0F70112820E94F4
:1035C00015210E94B01FC7010E94FB1A0E941521FD
:1035D000DF91CF911F910F91FF90EF90DF90CF90EF
:1035E0000C94D11FDF91CF911F910F91FF90EF901D
:1035F000DF90CF9008950F931F93CF93DF93EC014B
:10360000988189812B813C81232B31F08F3F31F4CC
:1036100081E09F3F19F403C081E001C080E080FD9C
:1036200013C0CE010E94F104882371F06881798172
:103630008A810E94F2208C010E944D200E943E1F30
:10364000B801CE010E94A818DF91CF911F910F9170
:1036500008950E9446210E9456210E9474210E94D2
:10366000DF250E94392580E090E00E94D81580E097
:1036700090E00C94EE1580912101909122010E941E
:10368000B5220C94291B0E9436210C943B1BE92F78
:10369000E295EF704E2F50E0FA013297EE30F105CF
:1036A000B0F4EA59FF4F0C94392D803F91F018F493
:1036B000883E68F40EC0843F51F40BC0883E48F049
:1036C000813F29F406C093FB882780F9089580E0A4
:1036D000089581E008950E94E7200E94471B089505
:1036E000CF93DF9300D000D01F92CDB7DEB70F90FD
:1036F0000F900F900F900F90DF91CF910895CF937F
:10370000DF9300D000D000D0CDB7DEB726960FB63D
:10371000F894DEBF0FBECDBFDF91CF9108951F9308
:10372000CF93DF93C091B80116E08091B901C8171B
:1037300099F0D0E01C9FF0011D9FF00D1124E6547C
:10374000FE4F4081518162817381848195810E9405
:103750007F1B2196C770E9CFDF91CF911F9108950C
:103760004091EA015091EB016091EC017091ED0103
:103770008091EE019091EF010C947F1BCF9380918B
:10378000EF0182958F7009F05FC08091EC01882372
:1037900009F45AC08091B801B091B9017091EA0161
:1037A000A091EB014091ED015091EE0191E07F3F3E
:1037B00009F090E0692FC6E08B1709F445C0411568
:1037C000510521F0AF3F21F020E003C021E001C00E
:1037D000262F90E020FD35C0C89FF001C99FF00D55
:1037E0001124E654FE4F21812A132BC02081271378
:1037F00028C02281211125C0238134812417350757
:1038000010F421503109241B350B28373105C8F439
:103810002091EF012F7020612093EF0126E0289F77
:10382000F001299FF00D1124E154FE4F80818F702B
:10383000806180838AEE91E00E94FB1ACF910C9404
:103840008F1B01968770B8CFCF910895AF92BF922A
:10385000CF92DF92EF92FF920F931F93CF93DF935C
:10386000CDB7DEB761970FB6F894DEBF0FBECDBF00
:103870008C0185E0F801DE011D9601900D928A957C
:10388000E1F7D8014C9111965C9111971296EC904A
:103890003091EA016091EB018091ED019091EE0190
:1038A000009731F06F3F31F421E03F3F19F403C03E
:1038B00021E001C020E0B22FB170BB2E20FD60C11D
:1038C000F801C380D480A090EC01AA2009F4EEC0D6
:1038D0002091EF01C816D90628F0D601A81BB90B14
:1038E000CD0104C0809590958C0D9D1DFF24F3940F
:1038F0008837910580F0F12C207F09F09CC07C2D49
:10390000D98AC88A6E2D89890E94701B8AEE91E03F
:103910000E94FB1A2DC1822F807F09F054C05613DC
:1039200014C0431312C0FE2CE1100FC02F70206191
:103930002093EF010E94B01B8AEE91E00E94FB1AD7
:103940008091EF01F80185835CC1CD2831F05F3FA4
:1039500031F481E04F3F19F403C081E001C080E001
:1039600080FD03C081E08E2502C080E090E0F82F4A
:10397000F170FF2E80FF1CC08091B8012091B90129
:1039800036E0821709F41AC190E0389FF001399FA0
:10399000F00D1124E654FE4F6181561306C060817C
:1039A000461303C06281E61203C001968770E9CF17
:1039B000FE2CEE2009F425C18091EF0181608093F7
:1039C000EF01F12C1EC1561309C0431307C0E110CB
:1039D00005C08091EF01F8018583A4C04D875E8703
:1039E0008D859E850E946B1B882379F1EE2069F1FD
:1039F0002091EF01822F82958F7090E0029774F0F2
:103A00008091EA019091EB0198878F831986DB867C
:103A1000CA862C87CE0107960E94FB1A86E0F80121
:103A2000AAEEB1E001900D928A95E1F70E94BE1BCB
:103A30000E94B01B0DC0561771F04D875E878D85B3
:103A40009E850E946B1B81111AC0C8010E94FB1A3F
:103A5000FF24F394D6C04313F0CFE110EECF809152
:103A6000EF01F8018583C8010E94FB1A86E0EAEEA7
:103A7000F1E0DF011D928A95E9F7FA2CC2C0EE2031
:103A800021F32091EF01822F82958F7090E00297B1
:103A90002CF28091EA019091EB019A8389831B8239
:103AA000DD82CC822E83CE010196B6CFC816D90610
:103AB00028F0F601E81BF90BCF0104C08095909522
:103AC0008C0D9D1D8837910548F0F12C7C2DD98AED
:103AD000C88A6E2D89890E94701B4AC0FE2CEE2078
:103AE00009F4B3CF561333C0431331C02091EF0113
:103AF00020FD24C0822F82958F70482F50E0411501
:103B00005105E1F0D80115962C9315974F305105CA
:103B100049F08F5F982F9295907F822F8F70892B1D
:103B200015968C93C8010E94FB1A86E0F801AAEE54
:103B3000B1E001900D928A95E1F73DC086E0F80171
:103B4000AAEEB1E001900D928A95E1F75AC04D8737
:103B50005E878D859E850E946B1B81115FCF809152
:103B6000EF0181608093EF01C8010E94FB1A49C0F8
:103B7000EAEEF1E086E0DF011D928A95E9F71BC0CD
:103B8000EE2009F462CF4D875E878D859E850E9469
:103B90006B1BF82E882309F458CF86E0F801AAEEB3
:103BA000B1E001900D928A95E1F78AEE91E00E94D2
:103BB000FB160E94BE1B0E94B01B23C04D875E8770
:103BC0008D859E850E94E720292F22952F70223017
:103BD00028F49F7039F0811105C00BC0243028F4FF
:103BE0009F7049F4805E883020F0C8010E94FB1A63
:103BF000BF2CFB2C06C0D80115969C91907F91F7A5
:103C0000F8CF8F2D61960FB6F894DEBF0FBECDBFF3
:103C1000DF91CF911F910F91FF90EF90DF90CF90A8
:103C2000BF90AF9008951F93CF93DF93CDB7DEB7CA
:103C30002C970FB6F894DEBF0FBECDBF4F835887C9
:103C400069877A878B879C87CE0107960E94261CFE
:103C50008823D1F09F8188852A853B85232B31F0ED
:103C60008F3F31F481E09F3F19F403C081E001C030
:103C700080E080FD47C04F81588569857A858B85B6
:103C80009C850E947F1B3EC086E0FE013796DE01C8
:103C9000119601900D928A95E1F7FF81E8856A857A
:103CA0007B856115710531F0EF3F31F481E0FF3F15
:103CB00019F403C081E001C080E080FD23C02091A1
:103CC000B90130E0C9010196877099274091B80188
:103CD00050E084179507F1F1F983EA837D836C83C3
:103CE00096E0929FD001939FB00D1124A654BE4F31
:103CF000FE01319601900D929A95E1F78093B901FA
:103D00000E948F1B16E08091B8019091B90189172C
:103D100071F1189FC001112486549E4F0E94261CE9
:103D2000882329F1E091B8011E9FF0011124E65487
:103D3000FE4F4081518162817381848195810E940F
:103D40007F1B8091B80190E001968770992780933E
:103D5000B801D9CF0E94431B1092B9011092B8014B
:103D6000EAEEF1E086E0DF011D928A95E9F72C96F4
:103D70000FB6F894DEBF0FBECDBFDF91CF911F917C
:103D80000895EF92FF920F931F93CF93DF938C01CF
:103D9000892B09F46CC0F12CEE24E394E801219600
:103DA000F8018491843740F4843008F051C08130A8
:103DB00081F0823019F15BC0853709F444C0A8F165
:103DC0009CE7980F903708F052C08F770E941F1819
:103DD00041C00E5F1F4FFE01849190E2980F983012
:103DE00050F48770FE2D01C0FF0F8A95EAF78F2FE0
:103DF0000E94492114C00E9401172DC00E5F1F4F61
:103E0000FE01849190E2980F983060F48770FE2D47
:103E100001C0FF0F8A95EAF78F2F0E944F210E9461
:103E2000742119C00E941F1816C00E5F1F4FFE019B
:103E3000C491CC2381F08FE99FE00197F1F700C096
:103E40000000C150F6CF0E5F1F4FFE01F49003C07B
:103E50000E9401178E018F2D882309F49FCFEFE96F
:103E6000FFE03197F1F700C000008150F5CFDF91FE
:103E7000CF911F910F91FF90EF90089508950895AD
:103E80000C943F1F0C94401F0E94421F609321021C
:103E90007093220280932302909324020C94291B96
:103EA0000C94441F0F931F93009121021091220242
:103EB0002091230230912402602B712B822B932BB3
:103EC0001F910F910C94441F0F931F930091210297
:103ED0001091220220912302309124026023712349
:103EE000822393231F910F910C94441F0F931F93D0
:103EF000009121021091220220912302309124028C
:103F000060277127822793271F910F910C94441FDC
:103F10000C943F1F0E94881F60931D0270931E0225
:103F200080931F02909320020C94291B60E070E0A4
:103F3000CB010C948A1F0F931F9341E050E060E087
:103F400070E08A019B0104C0000F111F221F331F64
:103F50008A95D2F7C901B8011F910F910C948A1F5D
:103F60000F931F9341E050E060E070E004C0440F05
:103F7000551F661F771F8A95D2F780911D02909179
:103F80001E02A0911F02B09120028A019B01082B02
:103F9000192B2A2B3B2BC901B8011F910F910C94AF
:103FA0008A1F0F931F9341E050E060E070E004C06F
:103FB000440F551F661F771F8A95D2F7409550957D
:103FC0006095709580911D0290911E02A0911F0234
:103FD000B09120028A019B01082319232A233B2345
:103FE000C901B8011F910F910C948A1F0F931F9361
:103FF00041E050E060E070E004C0440F551F661FD0
:10400000771F8A95D2F780911D0290911E02A09190
:104010001F02B09120028A019B01082719272A2735
:104020003B27C901B8011F910F910C948A1F0F9370
:104030001F9300911D0210911E0220911F023091CA
:104040002002602B712B822B932B1F910F910C94CC
:104050008A1F0F931F9300911D0210911E02209141
:104060001F023091200260237123822393231F912A
:104070000F910C948A1F0F931F9300911D021091B2
:104080001E0220911F023091200260277127822793
:1040900093271F910F910C948A1F089527E0929FF8
:1040A000800D1124E82FE695E695E695877051E09E
:1040B00001C0550F8A95EAF785E0E89FF0011124C9
:1040C000E051FE4F20E030E070E04081CB01022E55
:1040D00002C0969587950A94E2F7817081958427AE
:1040E0008523842781932F5F3F4F2530310569F762
:1040F000089527E0929F800D1124682F669566959C
:104100006695982F977085E0689FB001112440E074
:1041100050E080E0FB01E40FF51FE051FE4F2081ED
:1041200030E0092E02C0369527950A94E2F72170F7
:104130003327042E01C0220F0A94EAF7822B4F5F27
:104140005F4F4530510531F70895BF92CF92DF920E
:10415000EF92FF920F931F93CF93DF938C01C09048
:104160001D02D0901E02E0901F02F090200280916C
:10417000210290912202A0912302B0912402C82A28
:10418000D92AEA2AFB2ACFE1D0E0D701C6010C2EBA
:1041900004C0B695A795979587950A94D2F780FDA8
:1041A00004C0219790F7B12C07C0BC2EB8018C2F0A
:1041B0000E94D1070197A9F38B2DDF91CF911F9119
:1041C0000F91FF90EF90DF90CF90BF900895CF9325
:1041D000DF93EC010E94A520BE010E94D107DF9170
:1041E000CF9108951F93CF93DF93EB019091B70187
:1041F000992321F0CB010E94E72013C0882349F0C6
:10420000CB010E94A520182F682FCE010E944E20BE
:1042100004C0CB010E947920182FBE01812F0E947B
:10422000D107DF91CF911F91089580912502859547
:1042300085958595089580912502877008959091C0
:104240002502977081E009F480E0089580913102A1
:10425000089590913102892B8093310208958095C1
:104260009091310289238093310208951092310296
:10427000089590913002892B8093300208958095A3
:104280009091300289238093300208951092300279
:10429000089590912F02892B80932F020895809585
:1042A00090912F02892380932F02089510922F025C
:1042B000089580912602089508950C945C210C9431
:1042C0005D2190912602981721F0809326020C948C
:1042D0005F21089580912602882329F010922602FA
:1042E00080E00C945F210895E0912101F09122017A
:1042F000809131028083E0912101F091220190812F
:1043000080913002892B8083E0912101F09122017C
:10431000908180912F02892B8083809126028823AF
:1043200081F0E0912101F09122019081892B80831D
:1043300080912101909122010E947E2281110E9490
:104340006A2180912101909122010C94BF150C9457
:104350005C2198E0899F90011124262B209325024F
:104360000E94B01F809125028595859585950C94B6
:10437000A7211092250280E00C94A721209125020C
:104380008095822380932502982F977079F430E0EE
:10439000482F082E000C550B2417350739F085954A
:1043A000859585950E94D11F0C94B921089580E0D0
:1043B00090E00E94662D21E08C3E9E4F09F020E0A7
:1043C000822F089582E090E00C94582D83E090E0D5
:1043D0000C94582DCF9384E090E00E94582DC82F64
:1043E00081E290E00E94582D2C2F30E0A901582B3B
:1043F000CA01CF910895CF93C92F682F84E090E030
:104400000E946C2D6C2F81E290E0CF910C946C2D6A
:10441000AB01BC018FE090E00C947E2DAB01BC01A0
:1044200083E190E00C947E2D60E070E0CB010C9471
:104430000E2260E070E0CB010E9408220C9414224E
:104440006CEE7EEF80E090E00E948A2D60E082E0DA
:1044500090E00E946C2D60E083E090E00E946C2D63
:104460001092210210922202109223021092240232
:1044700060E084E090E00E946C2D60E081E290E0DA
:104480000E946C2D60E085E090E00E946C2D60E061
:1044900086E090E00E946C2D6FEF87E090E00E9434
:1044A0006C2D40E050E0BA0188E090E00E947E2D43
:1044B00060E08DE090E00E946C2D40E050E0BA0199
:1044C00088E190E00E947E2D60E087E190E00E940C
:1044D0006C2D40E050E0BA018CE190E00E947E2D0E
:1044E00060E080E290E00E946C2D0C9419220C9404
:1044F0002022682F8EE090E00C946C2DFC01329607
:1045000097E080E0915029F021912223D9F38F5F29
:10451000F9CF08959C01FC0132969FEF80E0419114
:10452000461789F09F3F19F4411101C0982F8F5F02
:104530008630A9F79F3F39F0F901E90FF11D97FD8A
:10454000FA956283089508959C012A5F3F4FFC010C
:104550004281461301C01282019682179307B9F770
:1045600008950C948A220C94A422029626E0FC0161
:1045700011922A95E9F7089508950C94BC220C94A1
:10458000BC22CF930E94BF220E945C0B0E94BD22DE
:10459000C0E08C2F0E94690A811104C0CF5FCA302D
:1045A000C1F701C081E0CF9108950C94BC220C9416
:1045B000D5220E94D7228091A402843049F1109222
:1045C000330220E488E190E00FB6F894A895809338
:1045D00060000FBE2093600080E00E94D3040E9420
:1045E000D72283B7817F846083BF83B7816083BF15
:1045F0007894889583B78E7F83BF0FB6F894A8957B
:1046000080916000886180936000109260000FBE0E
:1046100008950C94BC220E94431B0E94B3150E9473
:10462000D3040C9409231F920F920FB60F921124FA
:104630008F939F93AF93BF9380913302811113C0E7
:1046400080919A0290919B02A0919C02B0919D0250
:104650004196A11DB11D80939A0290939B02A09355
:104660009C02B0939D02BF91AF919F918F910F904B
:104670000FBE0F901F90189582E084BD93E095BD0A
:104680009AEF97BD80936E0008952FB7F8948091AC
:104690009A0290919B02A0919C02B0919D022FBF23
:1046A0000895CF92DF92EF92FF920F931F932FB74F
:1046B000F89440919A0250919B0260919C027091F3
:1046C0009D022FBF6A017B01EE24FF248C0120E0B4
:1046D00030E0C016D106E206F30610F4415051094D
:1046E0009A01281B390BC9011F910F91FF90EF9080
:1046F000DF90CF90089578941F920F920FB60F928B
:1047000011248F939F93AF93BF9380919A029091BE
:104710009B02A0919C02B0919D020196A11DB11D2A
:1047200080939A0290939B02A0939C02B0939D0267
:10473000BF91AF919F918F910F900FBE0F901F90DF
:10474000189587E797E790930108809300089AE00F
:1047500088E10FB6F894A895809360000FBE9093FF
:104760006000FFCF0E94D721811102C00E947722F2
:104770000E94E221809332020E94EA2190939F02DC
:1047800080939E020E94E621682F70E080E090E016
:104790000C94501F8091370280FF0BC0609126015E
:1047A00085E0689FB00111247595679575956795AB
:1047B0002BC081FF09C06091260185E0689FB00190
:1047C00011247595679520C082FF07C0609126016E
:1047D00085E0689FB001112417C09091360299239B
:1047E000D1F060912501961788F72091260185E088
:1047F000289F90011124929FA001939F500D112496
:1048000070E0CA010E94252D6038710540F46115E1
:10481000710519F406C065E070E0862F08958FE7F2
:10482000089581E008958091370280FF08C060916B
:10483000240170E0759567957595679521C081FF96
:1048400006C06091240170E07595679519C082FFDC
:1048500004C06091240170E010C090913602992349
:1048600099F0609123019617A0F780912401899F08
:10487000C001112470E00E94252D6038710540F4BC
:104880006115710519F406C061E070E0862F089586
:104890008FE7089581E00895803F21F40E94CA23A4
:1048A000819504C0813F29F40E94CA2380933B0272
:1048B0000895823F21F40E94CA23819504C0833F5A
:1048C00029F40E94CA2380933A020895893F19F47B
:1048D0000E94132405C08A3F31F40E94132481955D
:1048E00080933C0208958B3F21F40E94132481950C
:1048F00004C08C3F29F40E94132480933D02089544
:10490000843F21F480913902816017C0853F21F4F2
:1049100080913902826011C0863F21F48091390272
:1049200084600BC0873F21F480913902886005C004
:10493000883F31F480913902806180933902089573
:104940008D3F21F48091370281600BC08E3F21F4AE
:1049500080913702826005C08F3F29F48091370231
:104960008460809337020895803F39F480913B0240
:1049700087FF6CC010923B0269C0813F29F480918F
:104980003B021816BCF362C090913A02823F29F4B0
:1049900097FF5CC010923A0259C0833F19F4191670
:1049A000CCF354C0893F41F480913C0218160CF0BE
:1049B0004DC010923C024AC08A3F29F480913C02CB
:1049C00087FF44C0F6CF8B3F39F480913D0287FFCB
:1049D0003DC010923D023AC08C3F29F480913D02C7
:1049E0001816BCF333C0843F21F4809139028E7FC6
:1049F00017C0853F21F4809139028D7F11C0863F19
:104A000021F4809139028B7F0BC0873F21F4809184
:104A10003902877F05C0883F31F4809139028F7E4B
:104A20008093390213C08D3F21F4809137028E7F2D
:104A30000BC08E3F21F4809137028D7F05C08F3FE0
:104A400029F4809137028B7F8093370280913A025C
:104A500081110EC080913B0281110AC080913C02FD
:104A6000811106C080913D02811102C01092360270
:104A7000089588E392E00E94CA150E94452390930E
:104A800035028093340208951F93CF93DF93809172
:104A90003402909135020E945123AC01909136026C
:104AA000992321F02091270130E006C020912801B0
:104AB0008AE0289F900111244217530708F47BC015
:104AC00080913A02C0913B02D0913C0210913D028C
:104AD000811107C0C1116BC0D11169C0111167C02C
:104AE0006AC09F3F19F09F5F90933602181624F416
:104AF0000E94CA2380933A0280913A0287FF05C040
:104B00000E94CA23819580933A021C1624F40E94C5
:104B1000CA2380933B0280913B0287FF05C00E941D
:104B2000CA23819580933B0230913A023323E1F00E
:104B300020913B022223C1F045EB3403C001112434
:104B4000992319F090933A0203C081E080933A02CE
:104B500035EB2303C0011124992319F090933B02F4
:104B600003C081E080933B021D1624F40E941324AD
:104B700080933C0280913C0287FF05C00E94132471
:104B8000819580933C02111624F40E941324809393
:104B90003D0280913D0287FF05C00E94132481954C
:104BA00080933D02DF91CF911F910C9439259F3F57
:104BB00009F099CFAACFDF91CF911F910895E8E333
:104BC000F2E086E0DF011D928A95E9F71092360245
:104BD0001092370208958091460208950F931F9313
:104BE000CF93DF9300D01F92CDB7DEB78C010E9428
:104BF0004828823011F0843021F584E089831B83BA
:104C00000A8382E08093E9008FEF9091E800815061
:104C100095FD06C095ED9A95F1F700008111F5CF4D
:104C20008091E80085FF0DC040E050E063E070E057
:104C3000CE0101960E9465288091E8008E778093CE
:104C4000E8000F900F900F90DF91CF911F910F917F
:104C50000895CF93DF9300D01F92CDB7DEB7209198
:104C6000A402243031F523E02983805891099B83E5
:104C70008A8382E08093E9008FEF9091E800815071
:104C800095FD06C095ED9A95F1F700008111F5CFDD
:104C90008091E80085FF0DC040E050E063E070E0E7
:104CA000CE0101960E9465288091E8008E7780935E
:104CB000E8000F900F900F90DF91CF910895CF9360
:104CC000DF93EC010E944828823011F08430F9F41F
:104CD00082E08093E9008FEF9091E800815095FD8C
:104CE00006C095ED9A95F1F700008111F5CF8091FE
:104CF000E80085FF0CC040E050E066E070E0CE01C7
:104D00000E9465288091E8008E778093E800DF910B
:104D1000CF910895CF93DF93EC010E944828823011
:104D200011F0843039F581E08093E9008FEF9091A4
:104D3000E800815095FD06C095ED9A95F1F70000C9
:104D40008111F5CF8091E80085FF14C040E050E06C
:104D500068E070E0CE010E9465288091E8008E77BF
:104D60008093E80088E0FE01AEE3B2E001900D928E
:104D70008A95E1F7DF91CF9108958091A302811187
:104D800009C00E94F6290E94532A8091E2008460A3
:104D90008093E20008951092A30208950895089563
:104DA0000C940B2342E061EC81E00E946F2942E207
:104DB00061EC82E00C946F298091A602833009F4A3
:104DC00060C030F4813071F0823009F499C00895E8
:104DD0008A3009F485C08B3009F46BC0893009F042
:104DE000A7C020C08091A502813A09F0A1C080919E
:104DF000E800877F8093E8008091A9029091AA0241
:104E0000892B21F468E08EE392E003C060E080E04B
:104E100090E070E00E94B0288091E8008B7780934A
:104E2000E80008958091A502813209F081C0809147
:104E3000A9029091AA02029708F07AC08091E80036
:104E4000877F8093E8008091E80082FD05C0809113
:104E5000A4028111F8CF6CC02091F3008091F20080
:104E600090E0922B029729F48091F1008B7F8130A2
:104E700021F48091F100809346028091E8008B77C5
:104E800053C08091A502813A09F052C08091A902D5
:104E90009091AA02892B09F04BC08091E800877F8E
:104EA0008093E8008091E80080FFFCCF809133017F
:104EB00036C08091A5028132D9F58091A9029091E6
:104EC000AA02892BA9F58091E800877F8093E800EA
:104ED0000E94A4298091A702809333010C94431B64
:104EE0008091A502813221F58091E800877F80932F
:104EF000E8000E94A4298091A802809347020895A7
:104F00008091A502813AA1F48091E800877F809387
:104F1000E8008091E80080FFFCCF809147028093F9
:104F2000F1008091E8008E778093E8000C94A4292A
:104F3000089584B7877F84BF0FB6F894A8958091B1
:104F40006000886180936000109260000FBE80E86E
:104F500080936100109261000E9414160E94F6294D
:104F60000E94532A8091E20084608093E20078944A
:104F70000E94E82C0E941A1689E291E00E94AE1568
:104F80008091A402853069F40E94D9228091A20206
:104F90008823B1F30E94C122882391F30E944F28F5
:104FA000EFCF0E9424160E943E12EACF0C94D8271D
:104FB000292F332723303105C9F060F42130310522
:104FC00081F02230310509F04AC08BE390E029E6F8
:104FD00036E049C02132310511F12232310579F133
:104FE0003EC082E190E024EA36E03DC0992781305E
:104FF000910561F040F08230910559F0039779F501
:10500000EDE3F6E008C0E5E6F6E005C0E7E5F6E02A
:1050100002C0E3E4F6E0849190E09F0124C06115B2
:10502000710541F061307105D1F489E090E024E927
:1050300036E019C089E090E02BE736E014C0611536
:10504000710541F06130710551F485E890E026EB7F
:1050500036E009C080E490E02BE337E004C080E054
:1050600090E020E030E0FA01318320830895089534
:10507000CF93C82F0E943728C0934802CF9108953C
:105080008091A402843011F081E0089582E00895B7
:1050900080914802811102C00C944028089580E15B
:1050A00089BD82E189BD09B400FEFDCF8091D800A1
:1050B0008F7D8093D8008091E00082608093E00033
:1050C0008091E00081FDFCCF0895CF92DF92EF92B6
:1050D000FF920F931F93CF93DF93EC018B017A0123
:1050E0000E94C329811133C0E114F10439F0F701A2
:1050F00080819181081B190BC80FD91FC12CD12C9D
:105100000115110519F18091E80085FD16C0809107
:10511000E8008E778093E800E114F10449F0F7018C
:1051200080819181C80ED91ED182C08285E00FC0D6
:105130000E94C329882321F30AC089918093F1003A
:1051400001501109FFEFCF1ADF0ADACF80E0DF91BB
:10515000CF911F910F91FF90EF90DF90CF90089526
:105160002091AB023091AC022617370748F0611549
:10517000710539F42091E8002E772093E80001C0F2
:10518000B901FC0120E06115710579F18091A4025B
:105190008823F1F18530F1F18091E80083FD3CC076
:1051A0008091E80082FD2EC08091E80080FFEBCF67
:1051B0002091F3008091F20090E0922B611571052F
:1051C00051F08830910538F421912093F10061501D
:1051D00071090196F3CF21E0089709F020E0809152
:1051E000E8008E778093E800CECF2111CFCF0AC0A0
:1051F0008091A402882361F0853061F08091E800FD
:1052000083FD0AC08091E80082FFF2CF80E008951C
:1052100082E0089583E0089581E008952091AB0233
:105220003091AC022617370748F06115710539F443
:105230002091E8002E772093E80001C0B901FC011D
:1052400020E06115710591F18091A402882309F491
:1052500040C0853009F43FC08091E80083FD3DC027
:105260008091E80082FD2FC08091E80080FFE9CFA7
:105270002091F3008091F20090E0922B611571056E
:1052800059F08830910540F424912093F100319633
:10529000615071090196F2CF21E0089709F020E0F2
:1052A0008091E8008E778093E800CBCF2111CCCF9E
:1052B0000AC08091A402882361F0853061F080915A
:1052C000E80083FD0AC08091E80082FFF2CF80E011
:1052D000089582E0089583E0089581E00895982F6D
:1052E000973068F59093E900981739F07091EC00C9
:1052F0002091ED005091F00003C0242F762F50E054
:1053000021FD02C09F5FECCF3091EB003E7F3093D8
:10531000EB003091ED003D7F3093ED003091EB00DC
:1053200031603093EB007093EC002093ED005093CC
:10533000F0002091EE0027FDE5CF80E008958F700A
:105340008093E90081E008958091A50287FF11C054
:105350008091E80082FD05C08091A4028111F8CF00
:1053600011C08091E8008B770BC08091A402882344
:1053700049F08091E80080FFF8CF8091E8008E77B7
:105380008093E80008952091E4003091E50095E6CF
:105390004091EC00842F817040FF23C08091E80091
:1053A00080FD1DC08091A402882399F0853099F07A
:1053B0008091EB0085FD11C04091E4005091E50023
:1053C0002417350729F3915011F09A01E1CF84E0B9
:1053D000089582E0089583E0089581E0089580E0D3
:1053E00008954091E80042FFDDCF08950E94642AAD
:1053F0000E946C2AE0EEF0E0808181608083E8ED1D
:10540000F0E080818F77808319BCA7EDB0E08C91AC
:105410008E7F8C9380818F7E80831092A30208956B
:105420000F931F93CF93DF930E94642A0E946C2AEC
:10543000C8EDD0E088818F778883888180688883F1
:1054400088818F7D888319BC1092A4021092A002DB
:105450001092A2021092A10200EE10E0F8018081E9
:105460008B7F808388818160888342E060E080E078
:105470000E946F29E1EEF0E080818E7F8083E2EE72
:10548000F0E0808181608083808188608083F80182
:1054900080818E7F8083888180618883DF91CF9136
:1054A0001F910F910895E8EDF0E080818F7E808359
:1054B000E7EDF0E080818160808384E082BF81E05D
:1054C0008093A3020C94102AE8EDF0E080818E7F97
:1054D00080831092E20008951092DA001092E100A9
:1054E00008951F920F920FB60F9211242F933F939E
:1054F0004F935F936F937F938F939F93AF93BF93DC
:10550000EF93FF938091E10082FF0BC08091E20056
:1055100082FF07C08091E1008B7F8093E1000E94B1
:10552000E72C8091DA0080FF1FC08091D80080FFB7
:105530001BC08091DA008E7F8093DA008091D900C1
:1055400080FF0DC080E189BD82E189BD09B400FE04
:10555000FDCF81E08093A4020E94BD2605C019BC46
:105560001092A4020E94CB268091E10080FF19C016
:105570008091E20080FF15C08091E2008E7F8093D1
:10558000E2008091E20080618093E2008091D80087
:1055900080628093D80019BC85E08093A4020E94A9
:1055A000CF268091E10084FF30C08091E20084FF2B
:1055B0002CC080E189BD82E189BD09B400FEFDCF28
:1055C0008091D8008F7D8093D8008091E1008F7EFC
:1055D0008093E1008091E2008F7E8093E2008091D1
:1055E000E20081608093E2008091A002882311F0A4
:1055F00084E007C08091E30087FD02C081E001C024
:1056000083E08093A4020E94D0268091E10083FF72
:1056100029C08091E20083FF25C08091E100877F4F
:105620008093E10082E08093A4021092A002809116
:10563000E1008E7F8093E1008091E2008E7F809375
:10564000E2008091E20080618093E20042E060E04D
:1056500080E00E946F298091F00088608093F000C4
:105660000E94CE26FF91EF91BF91AF919F918F91B4
:105670007F916F915F914F913F912F910F900FBE4E
:105680000F901F9018951F920F920FB60F92112432
:105690002F933F934F935F936F937F938F939F933A
:1056A000AF93BF93CF93DF93EF93FF93C091E90044
:1056B000CF708091EC00D82FD17080FDD0E810928F
:1056C000E9008091F000877F8093F00078940E9439
:1056D000872B1092E9008091F00088608093F000A1
:1056E000CD2BCF70C093E900FF91EF91DF91CF9167
:1056F000BF91AF919F918F917F916F915F914F91EA
:105700003F912F910F900FBE0F901F9018951F93F0
:10571000CF93DF93CDB7DEB7AA970FB6F894DEBF6D
:105720000FBECDBFE5EAF2E08091F100819322E067
:10573000ED3AF207C9F70E94DC268091E80083FF6A
:105740002EC18091A5029091A602492F50E04A30C7
:10575000510508F024C1FA01EC58FF4F0C94392D83
:10576000803821F0823809F01AC108C08091A10266
:105770009091A202992389F082600FC08091A902C2
:105780008F70873008F00BC18093E9008091EB00A7
:1057900085FB882780F91092E9009091E800977FB7
:1057A0009093E8008093F1001092F100D1C0282F6F
:1057B0002D7F09F0F4C0882319F0823061F0EFC02A
:1057C0008091A702813009F0EAC0933009F080E0AF
:1057D0008093A2022EC08091A70281112AC08091DD
:1057E000A9028F702FEF280F263008F0D8C08093C1
:1057F000E9002091EB0020FF1CC0933021F4809140
:10580000EB00806214C09091EB0090619093EB00EC
:1058100021E030E0A90102C0440F551F8A95E2F74C
:105820004093EA001092EA008091EB008860809338
:10583000EB001092E9008091E800877F8093E800F8
:105840000E94A429ACC08111AAC01091A7021F77A1
:105850008091E3008078812B8093E3008091E800C1
:10586000877F8093E8000E94A4298091E80080FF50
:10587000FCCF8091E30080688093E300111102C0A7
:1058800082E001C083E08093A40289C08058823006
:1058900008F085C08091A7029091A8028C3D53E04A
:1058A000950779F583E08A838AE289834FB7F89474
:1058B000DE01139620E03EE051E2E32FF0E050934A
:1058C0005700E49120FF03C0E295EF703F5FEF7057
:1058D0008E2F90E0EA3010F0C79601C0C0968D93ED
:1058E0009D932F5F243149F74FBF8091E800877F58
:1058F0008093E8006AE270E0CE0101960E94B02831
:1059000016C06091A9027091AA02AE014F5F5F4F6D
:105910000E94D627BC01892B09F441C09091E80070
:10592000977F9093E80089819A810E940E29809147
:10593000E8008B778093E80032C0803881F5809151
:10594000E800877F8093E8008091A0028093F100B7
:105950008091E8008E7772CF811121C08091A702DB
:105960009091A80299270297D4F48091E800877F4C
:105970008093E8008091A7028093A0020E94A4294E
:105980008091A002811106C08091E30087FD02C0D2
:1059900081E001C084E08093A4020E94D22680911D
:1059A000E80083FF0AC08091E800877F8093E800C9
:1059B0008091EB0080628093EB00AA960FB6F8947A
:1059C000DEBF0FBECDBFDF91CF911F910895089527
:1059D000CF938091A4028823A1F0C091E900CF70F9
:1059E0009091EC00892F817090FD80E8C82B109277
:1059F000E9008091E80083FD0E94872BCF70C0935F
:105A0000E900CF91089587FB082E062687FD819532
:105A100067FD61950E943F2D0EF4919507FC8195DD
:105A20000895AA1BBB1B51E107C0AA1FBB1FA617E5
:105A3000B70710F0A61BB70B881F991F5A95A9F737
:105A400080959095BC01CD01089597FB072E16F423
:105A5000009407D077FD09D00E94112D07FC05D0D6
:105A60003EF4909581959F4F0895709561957F4F75
:105A70000895EE0FFF1F0590F491E02D0994991BF6
:105A800079E004C0991F961708F0961B881F7A9535
:105A9000C9F780950895FC014150504030F00190C5
:105AA0000616D1F73197CF010895882799270895D1
:105AB000F999FECF92BD81BDF89A992780B50895D6
:105AC000A6E1B0E044E050E00C94922DA8E1B0E0F3
:105AD00042E050E00C94922D262FF999FECF92BD12
